{
  "_format": "hh-sol-artifact-1",
  "contractName": "CarRental",
  "sourceName": "contracts/CarRental.sol",
  "abi": [
    {
      "inputs": [
        {
          "internalType": "uint256",
          "name": "_rentalAmount",
          "type": "uint256"
        },
        {
          "internalType": "uint256",
          "name": "_securityDeposit",
          "type": "uint256"
        },
        {
          "internalType": "uint256",
          "name": "_rentalDuration",
          "type": "uint256"
        },
        {
          "internalType": "uint256",
          "name": "_paymentFrequency",
          "type": "uint256"
        }
      ],
      "stateMutability": "nonpayable",
      "type": "constructor"
    },
    {
      "inputs": [],
      "name": "ReentrancyGuardReentrantCall",
      "type": "error"
    },
    {
      "anonymous": false,
      "inputs": [
        {
          "indexed": false,
          "internalType": "address",
          "name": "renter",
          "type": "address"
        },
        {
          "indexed": false,
          "internalType": "uint256",
          "name": "lateFee",
          "type": "uint256"
        },
        {
          "indexed": false,
          "internalType": "uint256",
          "name": "date",
          "type": "uint256"
        }
      ],
      "name": "LateFeeCharged",
      "type": "event"
    },
    {
      "anonymous": false,
      "inputs": [
        {
          "indexed": false,
          "internalType": "address",
          "name": "renter",
          "type": "address"
        },
        {
          "indexed": false,
          "internalType": "uint256",
          "name": "amount",
          "type": "uint256"
        },
        {
          "indexed": false,
          "internalType": "uint256",
          "name": "date",
          "type": "uint256"
        }
      ],
      "name": "RentPaid",
      "type": "event"
    },
    {
      "anonymous": false,
      "inputs": [
        {
          "indexed": false,
          "internalType": "address",
          "name": "renter",
          "type": "address"
        },
        {
          "indexed": false,
          "internalType": "uint256",
          "name": "rentalStart",
          "type": "uint256"
        }
      ],
      "name": "RentalStarted",
      "type": "event"
    },
    {
      "anonymous": false,
      "inputs": [
        {
          "indexed": false,
          "internalType": "address",
          "name": "renter",
          "type": "address"
        },
        {
          "indexed": false,
          "internalType": "uint256",
          "name": "terminationDate",
          "type": "uint256"
        }
      ],
      "name": "RentalTerminated",
      "type": "event"
    },
    {
      "inputs": [],
      "name": "contractBalance",
      "outputs": [
        {
          "internalType": "uint256",
          "name": "",
          "type": "uint256"
        }
      ],
      "stateMutability": "view",
      "type": "function"
    },
    {
      "inputs": [],
      "name": "endRental",
      "outputs": [],
      "stateMutability": "nonpayable",
      "type": "function"
    },
    {
      "inputs": [],
      "name": "isActive",
      "outputs": [
        {
          "internalType": "bool",
          "name": "",
          "type": "bool"
        }
      ],
      "stateMutability": "view",
      "type": "function"
    },
    {
      "inputs": [],
      "name": "lastPaymentDate",
      "outputs": [
        {
          "internalType": "uint256",
          "name": "",
          "type": "uint256"
        }
      ],
      "stateMutability": "view",
      "type": "function"
    },
    {
      "inputs": [],
      "name": "lateFeePercentage",
      "outputs": [
        {
          "internalType": "uint256",
          "name": "",
          "type": "uint256"
        }
      ],
      "stateMutability": "view",
      "type": "function"
    },
    {
      "inputs": [],
      "name": "owner",
      "outputs": [
        {
          "internalType": "address",
          "name": "",
          "type": "address"
        }
      ],
      "stateMutability": "view",
      "type": "function"
    },
    {
      "inputs": [],
      "name": "payRent",
      "outputs": [],
      "stateMutability": "payable",
      "type": "function"
    },
    {
      "inputs": [],
      "name": "paymentFrequency",
      "outputs": [
        {
          "internalType": "uint256",
          "name": "",
          "type": "uint256"
        }
      ],
      "stateMutability": "view",
      "type": "function"
    },
    {
      "inputs": [],
      "name": "rentalAmount",
      "outputs": [
        {
          "internalType": "uint256",
          "name": "",
          "type": "uint256"
        }
      ],
      "stateMutability": "view",
      "type": "function"
    },
    {
      "inputs": [],
      "name": "rentalDuration",
      "outputs": [
        {
          "internalType": "uint256",
          "name": "",
          "type": "uint256"
        }
      ],
      "stateMutability": "view",
      "type": "function"
    },
    {
      "inputs": [],
      "name": "rentalStart",
      "outputs": [
        {
          "internalType": "uint256",
          "name": "",
          "type": "uint256"
        }
      ],
      "stateMutability": "view",
      "type": "function"
    },
    {
      "inputs": [],
      "name": "renter",
      "outputs": [
        {
          "internalType": "address",
          "name": "",
          "type": "address"
        }
      ],
      "stateMutability": "view",
      "type": "function"
    },
    {
      "inputs": [],
      "name": "securityDeposit",
      "outputs": [
        {
          "internalType": "uint256",
          "name": "",
          "type": "uint256"
        }
      ],
      "stateMutability": "view",
      "type": "function"
    },
    {
      "inputs": [],
      "name": "startRental",
      "outputs": [],
      "stateMutability": "payable",
      "type": "function"
    },
    {
      "inputs": [],
      "name": "terminateRental",
      "outputs": [],
      "stateMutability": "nonpayable",
      "type": "function"
    }
  ],
  "bytecode": "0x60806040526005600a5534801561001557600080fd5b50604051611892380380611892833981810160405281019061003791906100fb565b600160008190555033600160006101000a81548173ffffffffffffffffffffffffffffffffffffffff021916908373ffffffffffffffffffffffffffffffffffffffff160217905550836003819055508260048190555081600581905550806006819055506000600960006101000a81548160ff02191690831515021790555050505050610162565b600080fd5b6000819050919050565b6100d8816100c5565b81146100e357600080fd5b50565b6000815190506100f5816100cf565b92915050565b60008060008060808587031215610115576101146100c0565b5b6000610123878288016100e6565b9450506020610134878288016100e6565b9350506040610145878288016100e6565b9250506060610156878288016100e6565b91505092959194509250565b611721806101716000396000f3fe6080604052600436106100e85760003560e01c80637aeabb391161008a5780638e589315116100595780638e5893151461027d578063a709c4fe146102a8578063c47887aa146102b2578063d7d2305c146102dd576100e8565b80637aeabb39146101f25780638b7afe2e1461021d5780638da5cb5b146102485780638e2f871914610273576100e8565b80632e88ab0b116100c65780632e88ab0b1461015a5780632f03c037146101855780633b55c9ee1461019c5780636eefcb1f146101c7576100e8565b806305286ded146100ed578063220e5ab31461010457806322f3e2d41461012f575b600080fd5b3480156100f957600080fd5b50610102610308565b005b34801561011057600080fd5b506101196105e7565b6040516101269190611044565b60405180910390f35b34801561013b57600080fd5b506101446105ed565b604051610151919061107a565b60405180910390f35b34801561016657600080fd5b5061016f610600565b60405161017c91906110d6565b60405180910390f35b34801561019157600080fd5b5061019a610626565b005b3480156101a857600080fd5b506101b1610986565b6040516101be9190611044565b60405180910390f35b3480156101d357600080fd5b506101dc61098c565b6040516101e99190611044565b60405180910390f35b3480156101fe57600080fd5b50610207610992565b6040516102149190611044565b60405180910390f35b34801561022957600080fd5b50610232610998565b60405161023f9190611044565b60405180910390f35b34801561025457600080fd5b5061025d6109a0565b60405161026a91906110d6565b60405180910390f35b61027b6109c6565b005b34801561028957600080fd5b50610292610b9f565b60405161029f9190611044565b60405180910390f35b6102b0610ba5565b005b3480156102be57600080fd5b506102c761101f565b6040516102d49190611044565b60405180910390f35b3480156102e957600080fd5b506102f2611025565b6040516102ff9190611044565b60405180910390f35b600073ffffffffffffffffffffffffffffffffffffffff163373ffffffffffffffffffffffffffffffffffffffff1603610377576040517f08c379a000000000000000000000000000000000000000000000000000000000815260040161036e9061114e565b60405180910390fd5b600160009054906101000a900473ffffffffffffffffffffffffffffffffffffffff1673ffffffffffffffffffffffffffffffffffffffff163373ffffffffffffffffffffffffffffffffffffffff1614610407576040517f08c379a00000000000000000000000000000000000000000000000000000000081526004016103fe906111ba565b60405180910390fd5b600073ffffffffffffffffffffffffffffffffffffffff163373ffffffffffffffffffffffffffffffffffffffff1603610476576040517f08c379a000000000000000000000000000000000000000000000000000000000815260040161046d9061114e565b60405180910390fd5b600960009054906101000a900460ff166104c5576040517f08c379a00000000000000000000000000000000000000000000000000000000081526004016104bc90611226565b60405180910390fd5b6000600960006101000a81548160ff0219169083151502179055506000600260006101000a81548173ffffffffffffffffffffffffffffffffffffffff021916908373ffffffffffffffffffffffffffffffffffffffff160217905550600160009054906101000a900473ffffffffffffffffffffffffffffffffffffffff1673ffffffffffffffffffffffffffffffffffffffff166108fc479081150290604051600060405180830381858888f1935050505015801561058a573d6000803e3d6000fd5b507e3d4e7d508ceb82bba6e0660e8bc52da1c7d742a71cd6bfd74943e8a44e2f86600260009054906101000a900473ffffffffffffffffffffffffffffffffffffffff16426040516105dd929190611246565b60405180910390a1565b60045481565b600960009054906101000a900460ff1681565b600260009054906101000a900473ffffffffffffffffffffffffffffffffffffffff1681565b600073ffffffffffffffffffffffffffffffffffffffff163373ffffffffffffffffffffffffffffffffffffffff1603610695576040517f08c379a000000000000000000000000000000000000000000000000000000000815260040161068c9061114e565b60405180910390fd5b600260009054906101000a900473ffffffffffffffffffffffffffffffffffffffff1673ffffffffffffffffffffffffffffffffffffffff163373ffffffffffffffffffffffffffffffffffffffff1614610725576040517f08c379a000000000000000000000000000000000000000000000000000000000815260040161071c906112e1565b60405180910390fd5b600073ffffffffffffffffffffffffffffffffffffffff163373ffffffffffffffffffffffffffffffffffffffff1603610794576040517f08c379a000000000000000000000000000000000000000000000000000000000815260040161078b9061114e565b60405180910390fd5b600960009054906101000a900460ff166107e3576040517f08c379a00000000000000000000000000000000000000000000000000000000081526004016107da90611226565b60405180910390fd5b600073ffffffffffffffffffffffffffffffffffffffff163373ffffffffffffffffffffffffffffffffffffffff1603610852576040517f08c379a00000000000000000000000000000000000000000000000000000000081526004016108499061114e565b60405180910390fd5b6005546007546108629190611330565b4210156108a4576040517f08c379a000000000000000000000000000000000000000000000000000000000815260040161089b906113d6565b60405180910390fd5b6000600960006101000a81548160ff021916908315150217905550600260009054906101000a900473ffffffffffffffffffffffffffffffffffffffff1673ffffffffffffffffffffffffffffffffffffffff166108fc6004549081150290604051600060405180830381858888f19350505050158015610929573d6000803e3d6000fd5b507e3d4e7d508ceb82bba6e0660e8bc52da1c7d742a71cd6bfd74943e8a44e2f86600260009054906101000a900473ffffffffffffffffffffffffffffffffffffffff164260405161097c929190611246565b60405180910390a1565b60075481565b60055481565b60085481565b600047905090565b600160009054906101000a900473ffffffffffffffffffffffffffffffffffffffff1681565b600073ffffffffffffffffffffffffffffffffffffffff163373ffffffffffffffffffffffffffffffffffffffff1603610a35576040517f08c379a0000000000000000000000000000000000000000000000000000000008152600401610a2c9061114e565b60405180910390fd5b600960009054906101000a900460ff1615610a85576040517f08c379a0000000000000000000000000000000000000000000000000000000008152600401610a7c90611442565b60405180910390fd5b600454600354610a959190611330565b3414610ad6576040517f08c379a0000000000000000000000000000000000000000000000000000000008152600401610acd906114ae565b60405180910390fd5b33600260006101000a81548173ffffffffffffffffffffffffffffffffffffffff021916908373ffffffffffffffffffffffffffffffffffffffff16021790555042600781905550426008819055506001600960006101000a81548160ff0219169083151502179055507fb86b8b74774c0d0b510f0a5a8975c7bdc9876d4c07602ba2849ab68c496f0059600260009054906101000a900473ffffffffffffffffffffffffffffffffffffffff16600754604051610b95929190611246565b60405180910390a1565b60065481565b600073ffffffffffffffffffffffffffffffffffffffff163373ffffffffffffffffffffffffffffffffffffffff1603610c14576040517f08c379a0000000000000000000000000000000000000000000000000000000008152600401610c0b9061114e565b60405180910390fd5b600260009054906101000a900473ffffffffffffffffffffffffffffffffffffffff1673ffffffffffffffffffffffffffffffffffffffff163373ffffffffffffffffffffffffffffffffffffffff1614610ca4576040517f08c379a0000000000000000000000000000000000000000000000000000000008152600401610c9b906112e1565b60405180910390fd5b600073ffffffffffffffffffffffffffffffffffffffff163373ffffffffffffffffffffffffffffffffffffffff1603610d13576040517f08c379a0000000000000000000000000000000000000000000000000000000008152600401610d0a9061114e565b60405180910390fd5b600960009054906101000a900460ff16610d62576040517f08c379a0000000000000000000000000000000000000000000000000000000008152600401610d5990611226565b60405180910390fd5b600073ffffffffffffffffffffffffffffffffffffffff163373ffffffffffffffffffffffffffffffffffffffff1603610dd1576040517f08c379a0000000000000000000000000000000000000000000000000000000008152600401610dc89061114e565b60405180910390fd5b6003543414610e15576040517f08c379a0000000000000000000000000000000000000000000000000000000008152600401610e0c9061151a565b60405180910390fd5b600654600854610e259190611330565b421015610e67576040517f08c379a0000000000000000000000000000000000000000000000000000000008152600401610e5e90611586565b60405180910390fd5b600654600854610e779190611330565b421115610f4c5760006064600a54600354610e9291906115a6565b610e9c9190611617565b905080600354610eac9190611330565b3414610eed576040517f08c379a0000000000000000000000000000000000000000000000000000000008152600401610ee490611694565b60405180910390fd5b7fb08293a9db1e2dd501729ddd47bb54ce4bc86aaedc477d8123059455e11eae76600260009054906101000a900473ffffffffffffffffffffffffffffffffffffffff168242604051610f42939291906116b4565b60405180910390a1505b42600881905550600160009054906101000a900473ffffffffffffffffffffffffffffffffffffffff1673ffffffffffffffffffffffffffffffffffffffff166108fc6003549081150290604051600060405180830381858888f19350505050158015610fbd573d6000803e3d6000fd5b507f33d9ffd7947b17c37c9905165c01183282058f1cb2252c9be395887d078572ad600260009054906101000a900473ffffffffffffffffffffffffffffffffffffffff1660035442604051611015939291906116b4565b60405180910390a1565b600a5481565b60035481565b6000819050919050565b61103e8161102b565b82525050565b60006020820190506110596000830184611035565b92915050565b60008115159050919050565b6110748161105f565b82525050565b600060208201905061108f600083018461106b565b92915050565b600073ffffffffffffffffffffffffffffffffffffffff82169050919050565b60006110c082611095565b9050919050565b6110d0816110b5565b82525050565b60006020820190506110eb60008301846110c7565b92915050565b600082825260208201905092915050565b7f5a65726f2061646472657373206e6f7420616c6c6f7765640000000000000000600082015250565b60006111386018836110f1565b915061114382611102565b602082019050919050565b600060208201905081810360008301526111678161112b565b9050919050565b7f4e6f7420616c6c6f776564000000000000000000000000000000000000000000600082015250565b60006111a4600b836110f1565b91506111af8261116e565b602082019050919050565b600060208201905081810360008301526111d381611197565b9050919050565b7f5468652072656e74616c206973206e6f74206163746976650000000000000000600082015250565b60006112106018836110f1565b915061121b826111da565b602082019050919050565b6000602082019050818103600083015261123f81611203565b9050919050565b600060408201905061125b60008301856110c7565b6112686020830184611035565b9392505050565b7f4f6e6c79207468652072656e7465722063616e20706572666f726d207468697360008201527f20616374696f6e00000000000000000000000000000000000000000000000000602082015250565b60006112cb6027836110f1565b91506112d68261126f565b604082019050919050565b600060208201905081810360008301526112fa816112be565b9050919050565b7f4e487b7100000000000000000000000000000000000000000000000000000000600052601160045260246000fd5b600061133b8261102b565b91506113468361102b565b925082820190508082111561135e5761135d611301565b5b92915050565b7f52656e74616c206475726174696f6e20686173206e6f7420656e64656420796560008201527f7400000000000000000000000000000000000000000000000000000000000000602082015250565b60006113c06021836110f1565b91506113cb82611364565b604082019050919050565b600060208201905081810360008301526113ef816113b3565b9050919050565b7f52656e74616c20697320616c7265616479206163746976650000000000000000600082015250565b600061142c6018836110f1565b9150611437826113f6565b602082019050919050565b6000602082019050818103600083015261145b8161141f565b9050919050565b7f496e636f727265637420696e697469616c207061796d656e7400000000000000600082015250565b60006114986019836110f1565b91506114a382611462565b602082019050919050565b600060208201905081810360008301526114c78161148b565b9050919050565b7f496e636f72726563742072656e7420616d6f756e740000000000000000000000600082015250565b60006115046015836110f1565b915061150f826114ce565b602082019050919050565b60006020820190508181036000830152611533816114f7565b9050919050565b7f5061796d656e7420746f6f206561726c79000000000000000000000000000000600082015250565b60006115706011836110f1565b915061157b8261153a565b602082019050919050565b6000602082019050818103600083015261159f81611563565b9050919050565b60006115b18261102b565b91506115bc8361102b565b92508282026115ca8161102b565b915082820484148315176115e1576115e0611301565b5b5092915050565b7f4e487b7100000000000000000000000000000000000000000000000000000000600052601260045260246000fd5b60006116228261102b565b915061162d8361102b565b92508261163d5761163c6115e8565b5b828204905092915050565b7f496e636f7272656374207061796d656e742077697468206c6174652066656500600082015250565b600061167e601f836110f1565b915061168982611648565b602082019050919050565b600060208201905081810360008301526116ad81611671565b9050919050565b60006060820190506116c960008301866110c7565b6116d66020830185611035565b6116e36040830184611035565b94935050505056fea264697066735822122007bdfdcbc1d472b6964ee84367510705662206364543688c3240ab7c3c72f87d64736f6c634300081b0033",
  "linkReferences": {},
  "deployedLinkReferences": {}
}